:020000040000fa
:080000000002040000000000f2
:020000040000fa
:10000800d6020000d6020000d6020000d602000088
:10001800d6020000d6020000d6020000d602000078
:10002800d6020000d6020000d6020000d602000068
:10003800d6020000d6020000d6020000d602000058
:10004800d6020000d6020000d6020000e20e000030
:100058002e0f0000d6020000d6020000d6020000d3
:10006800d602000038120000d6020000d6020000b6
:100078001c0d0000d6020000d6020000d6020000c7
:10008800d6020000d6020000d6020000d602000008
:10009800b4140000d602000058150000fc1000003f
:1000a800d6020000d6020000d6020000d6020000e8
:1000b800d6020000d6020000d6020000d6020000d8
:1000c800d6020000d6020000d6020000d6020000c8
:1000d800d6020000d6020000d6020000d6020000b8
:1000e800d6020000d6020000d6020000d6020000a8
:1000f800d6020000d6020000d6020000d602000098
:10010800d6020000d6020000d6020000d602000087
:10011800d6020000d6020000d6020000d602000077
:10012800d6020000d6020000d6020000d602000067
:10013800d6020000d6020000d6020000d602000057
:10014800d6020000d6020000d6020000d602000047
:10015800d6020000d6020000d6020000d602000037
:10016800d6020000d6020000d6020000d602000027
:10017800d6020000d6020000d6020000d602000017
:10018800d6020000d6020000d6020000d602000007
:10019800d6020000d6020000d6020000d6020000f7
:1001a800d6020000d6020000d6020000d6020000e7
:1001b800d6020000d6020000d6020000d6020000d7
:1001c800d6020000d6020000d6020000d6020000c7
:1001d800d6020000d6020000d6020000d6020000b7
:1001e800d6020000d6020000d6020000d6020000a7
:1001f800d6020000d6020000d6020000d602000097
:10020800d6020000d6020000d6020000d602000086
:10021800d6020000d6020000d6020000d602000076
:10022800d6020000d6020000d6020000d602000066
:10023800d6020000d6020000d6020000d602000056
:10024800d6020000d6020000d6020000d602000046
:10025800d6020000d6020000d6020000d602000036
:10026800d6020000d6020000d6020000d602000026
:0c027800d6020000d6020000d6020000f2
:020000040000fa
:10040000afbd21000eff27000e0188000000000094
:10041000000020000000e000020032000001200087
:10042000200288000c000700606e210001002000ff
:100430000f000700000020000000e0000200320072
:100440000000020000000000a015020000000000f3
:100450000040da000000fe00c00220000000e000c2
:1004600002003200002020009001880000000600f9
:10047000a1028800800078000000eb001a0037001d
:10048000e280400054a0b4009101ba00e280400034
:1004900054a0b4009102ba00e280400054a0b4001d
:1004a0000002eb00472bde00f507b200a601880032
:1004b000602ce10008003a000049eb000201e8006e
:1004c000020039003420ec0002f0a0008301e900b2
:1004d000f9ff3e00040037006128e100010032000e
:1004e0000082eb00040007001101ba000200e000e6
:1004f000e3ff3a000000060004d0a300e20f490029
:100500001c003900810278003549ba000201e80078
:10051000020039003420ec0002f0a0008301e90061
:100520000f0032002549ba000201e800020039003c
:100530003420ec0002f0a0008301e9000800320042
:100540000400e0000600320015c9ba000201e8000c
:10055000020039003420ec0002f0a0008301e90021
:100560008180e80054a0b4000300e000e2ff3a00fc
:10057000000006009102ba00055978008301e900e5
:10058000f7ff3200c82ade00055978008301e90030
:10059000f3ff32000400e000f1ff320011d9ba008d
:1005a000eeff37000e080400000000000040da00f3
:1005b0000000fe0003f0a200889fbe008a9fbe00dc
:1005c0008c1f78009b010700a20133006450e100fa
:1005d0004f0032006420e1005200320003826c00c0
:1005e00007003b000905d0000306d000820f54002d
:1005f0000c065d000200390002003200890178001b
:10060000030678008582550004003d000003fd00cc
:100610008103fd008502ea008b854200840f720091
:1006200002003b0060001000e08018006011b8007c
:100630000005eb007a28e1000a0039000600780086
:10064000c75ddd00f707b200878075002d00370019
:10065000828171000a017800610560008180d1000b
:100660000080d3008502e900f9ff3b00060440004a
:100670008784480002003b0060041400e0841c00f2
:100680000988a300070032008a817100828171000d
:10069000610164008904d1000884d3008b05e8005f
:1006a000170037000978a30013003a000b00e000a0
:1006b000130034008b05e9000804440089844c00d1
:1006c0000a4474000978a3000d003a000b00e00012
:1006d000070034008b05e9000804440089844c00bd
:1006e00001003a000b0020000978a300f7ff320058
:1006f0000001eb0002003700828171000a017800de
:10070000110107000cf0a70001f0a0005a0137000a
:100710006420e10002003a00838f6c005a0133002c
:100720000801be000200be0053013700889fbe00d2
:100730008a9fbe008c1f78003e0107001002200037
:1007400002003b00c0de8800420137008a006200e0
:100750006408e10002003a00c0de88004a01370068
:100760006108e100fcff32000800be0003047800cd
:100770007000070001f0a1000900070008f0a600c2
:10078000040037000001be0091042400b0fd2000e9
:1007900088ff070009f0a70001f0a200360137002a
:1007a000889fbe008a9fbe008c9fbe000004be00d2
:1007b0000b0107000800be00890678006420e100f4
:1007c00008003900040032000160a000120220007d
:1007d000c2de88005300370091fc2300b0fd2000ea
:1007e0004e0037000006eb0009f0a10003f82300db
:1007f000020020000800be00900007000600340040
:1008000001f82300000020000801be004900070095
:100810000004be002c0020000800be0093e8230066
:10082000320a230085000700120034000801be00d0
:10083000d1fd2300703d2b005fff07000005be00c7
:10084000b3f32300f27a26000800be00110107006e
:1008500003f823000200200056ff07000801be0035
:1008600055ff07000a01be00320007000004be0069
:100870000c06e8000800be0001f0a1000200200004
:10088000039823006d0007000800be001600350025
:100890000801be00ff0007000005be0032cd2c009d
:1008a00043fb230044ff0700809fbe00126928001d
:1008b00003d52b000a00be00f6000700620f2100de
:1008c00013ef2b003cff07000a01be00f1000700f8
:1008d0004f01be00170007000801be00ed00070031
:1008e0000801be0034ff07000c00e0000b003200de
:1008f0000c10a70001f0a200b2fd200093fc230021
:100900006260e1000400320022a9200063f02300ad
:100910000c10a70063f8230027ff07000df0a700c5
:1009200001f0a2004f06be004f05be004f04be00fe
:1009300000000600889fbe008a9fbe008c1f7800c2
:10094000bc000700c300330003866c006450e10064
:100950002e0032006420e100330032006150e100db
:100960002f0032006120e100310032008585550002
:10097000eb07b00009002000080420000500370044
:100980000804440089844c000a0031000603430037
:1009900087834b000001530081815b00f8ff330027
:1009a0000203be000800a0000804440089844c0033
:1009b000f6ff3900c639dd00830173000100320003
:1009c000130020008904d1000884d3000998a300f3
:1009d000050032000800a7000300a0008904d10030
:1009e0000884d3008b05e8008904d1000884d30073
:1009f0000001eb000281d2005300070001f0a100ca
:100a00000cf0a70001f0a0009b0037006420e1007b
:100a10009d0032000801be000200be00f7ff370053
:100a20006120e100980032006000b800f3ff370059
:100a30000000200001f82700f0ff3700140020001c
:100a4000fd0037000001be00650007000470a7002c
:100a500003f0a1006509b100160032000d00350059
:100a60006828e10006003500f0ff2f00f1ff2700a5
:100a70000300e00013003b00010028000000050017
:100a800000004000818048008502e900fcff3a0038
:100a900008003700f88f420002003c008000eb00a5
:100aa000000005008100d1000080d3008502e8002d
:100ab000fcff3a000300e00002003b006000100071
:100ac000e0801800000006000001be00440007009e
:100ad0000470a70003f0a10003f8a30013003a007c
:100ae0006509b10010003200090035006928e100f5
:100af0000200350001002800000005000000400051
:100b0000818048008502e900fcff3a0000000600f1
:100b1000f88f4200050035008100d1000080d3002d
:100b20008502e800fcff3a00000006008000eb00b0
:100b3000000005004f89de0082017800d9003700ef
:100b40006011b800e7003700810020006180550087
:100b50000b003d000b00200061fe2f000100e100b2
:100b60001d00340082817100610164008904d1009c
:100b70000884d3000000e800faff3a00710020006a
:100b80006100640003007000020060000900320090
:100b900061044400e0844c000988a500050032008f
:100ba0008b05e8006808e10002003a008904d100e2
:100bb0000884d300f20f20000258e10005003d0038
:100bc000c75ddd00f907b200898075000800780074
:100bd000000006000bf827008b00780000000500dd
:100be000c70ade00f107b200f50fb20008003200bc
:100bf000e1cf4200020032000170a0002400050095
:100c0000810f700001003200040805004400050057
:100c1000810f700002003a00140005008502e9000f
:100c20000000400081c04800fcff3b000170a000b4
:100c3000240005000004be00e9ff07000003be0019
:100c40000405be000200be00e5ff0700844f7500ea
:100c5000000006000200be006450e10005003600fe
:100c60006420e100020036000968a30001003a0098
:100c70000800be000160a0004f0678004f05be00ce
:100c80004f04be0000000600f0ff2f00f1ff270018
:100c9000f9ff3700889fbe008a9fbe008c1f780036
:100ca000e4ff0700ebff330003866c006450e100b3
:100cb000240032006420e100270032006150e1008e
:100cc000220032006120e100210032008b854200c9
:100cd000eb07b1000134b800003ab8000804420044
:100ce00089844a00013ab8000030b800888040008a
:100cf00009014a00040033000000400081804800e0
:100d0000020149008b05e900c909dd00830170007b
:100d10000100320013002000c814de004814dd007a
:100d20004709de001200b200c808de000884700027
:100d300085ff070001f0a1000cf0a70001f0a00062
:100d4000cdff37006120e100cfff32000801be0077
:100d50000200be00f7ff37006150e100fcff3a00df
:100d6000c9ff3700889fbe008a9fbe008c1f780095
:100d70000004be009aff07000478a30026003a0092
:100d80006120e1002500320009f8a30025003a00a7
:100d90006420e10021003200f507b1000508a3003e
:100da0000200320000004000818048006044b8002a
:100db0000310200002002000000040008180480055
:100dc0000805440089854c000a0541008b854900cf
:100dd0000a0550008b855800030033000a00be004e
:100de00002047400838474008301d1000281d30063
:100df000830f7100f0ff3a008904d1000884d3000a
:100e00006001490082017800c1adde00fb07b0003f
:100e10004dff070098ff37000960a0000800be00e2
:100e200095ff370012022000c2de8800f0ff2f007d
:100e3000f1ff270090ff3700889fbe008a9fbe0009
:100e4000841f78007bff07004f00780011003300fb
:100e5000f0ff2f00838f6c0006003b000405650047
:100e60000a00a7000800370009f0a60010002000c3
:100e700008003700820f5400838f5c0003003900a4
:100e80001000200001003e000000200009f0a70033
:100e90000000ea004f05be004f04be000000e00065
:100ea00000000600881f7800030478000300e000bb
:100eb00007003d0060001000e0801800600119008c
:100ec000e081190002003b0001f02d000300370013
:100ed0000400070008f0a70001f0a0004f0478000c
:100ee00000000600889fbe008a9fbe00008270003e
:100ef0000402710004827100260032000004be006a
:100f00000200be006011b8006b09200095022000ad
:100f10000182cf000a0039000541b1000082cf00f4
:100f2000070039000541b1000982cf0004003900f3
:100f30000541b1000882cf00010039000541b10030
:100f400005425200120032000a003b00828171000b
:100f5000610164008100d1000080d3008984d30046
:100f60000884d3008b05e8000442e800f7ff3a004c
:100f7000070037000804440089844c000000480042
:100f8000818048008b05e9000442e900f9ff3a003e
:100f9000edfe07004f05be004f04be000000060036
:100fa0000000fa00000278008042eb00b4cf12008b
:100fb000fdff3a000080ea000080fa0000004200d5
:040fc0000000060027
:020000040000fa
:100fc4005a650000726f00000d0a00000052000014
:100fd40065730000657400000d0a000000760000cf
:100fe400302e000030200000284a0000756e0000fa
:100ff400202000003820000032300000313500008d
:1010040020320000333a0000313100003a3400004d
:08101400342900000000000077
:020000040000fa
:10101c003800fa00889fbe008a9fbe008c9fbe00dd
:10102c00aa80210050d1800061d180003a021000ca
:10103c00aa8218000400be00befe0700c2d3260020
:10104c005327230010ff07000004be001a02be0045
:10105c0054d1880065d1880030d18000cf80de006b
:10106c00b1fe070002192c0093d7230006ff0700de
:10107c00c0d08800d1d0880020d18000cf80de0085
:10108c00a9fe070002192c0093d72300fefe0700cf
:10109c00e0d08800f1d08800281aee00cf80de0066
:1010ac00a1fe070002192c0093d72300f6fe0700bf
:1010bc0000d1880011d18800cad08000dbd080001c
:1010cc00e4d08000f5d08000241f9800351f9800d4
:1010dc0004d1800015d18000041f9800151f9800c2
:1010ec00e4dd8000f5dd800064179800751798002a
:1010fc0024de800035de80004417980055179800d8
:10110c00c4dd8000d5dd80002417980035179800c9
:10111c0004de800015de8000041798001517980077
:10112c00e4dd8000f5dd8000640f9800750f9800f9
:10113c0004de800015de8000440f9800550f9800e7
:10114c00c4dd8000d5dd8000240f9800350f980099
:10115c0024de800035de8000040f9800150f980007
:10116c0085bb210007000900351f78000e01b10076
:10117c000200200003f023000800be00c2fe07009e
:10118c000004be0052a32f00e3c823000a00be00d7
:10119c00bdfe07000801be00bbfe07000006be0036
:1011ac0052a32f00e3c823002e189000be18900005
:1011bc00b5fe0700201f9800311f98004e119000bb
:1011cc00de1190006e109000fe109000aefe070035
:1011dc000005be000e1190009e1190002e10900084
:1011ec00be109000a8fe07000001be000a00be0061
:1011fc00eefc07000001be00ecfc0700d2cc2c007a
:10120c00c3d42300a0fe07000001be002e189000de
:10121c00be189000e4fc07000801be009afe07000f
:10122c000005be0052a32f00e3c823000e18900047
:10123c009e18900094fe0700201f9800311f980004
:10124c004e099000de0990006e089000fe08900098
:10125c008dfe0700001f9800111f98000e099000ca
:10126c009e0990002e089000be08900086fe070094
:10127c000001be000e1890009e189000cafc0700da
:10128c000001be00c9fc0700d2cc2c00c3d4230043
:10129c007dfe07000001be002e189000be189000c5
:1012ac00c2fc07000801be0077fe07000004be0068
:1012bc00c4dd8000d5dd80004417980055179800d8
:1012cc002e019000be01900003f0a2000c00be00a5
:1012dc006dfe070020179800311798004e01900002
:1012ec00de0190000a00be0067fe07000001be0090
:1012fc002e109000be109000abfc07002017980039
:10130c00311798006e019000fe0190000800be009d
:10131c005dfe07000001be002e109000be10900074
:10132c00a1fc07000001be004e109000de109000e2
:10133c009efc0700c0dd8800d1dd8800e4dd800064
:10134c00f5dd800024179800351798001e01be00ab
:10135c000c00be004cfe07000017980011179800f7
:10136c004e019000de0190000800be0046fe070012
:10137c000001be000e1090009e1090008bfc070028
:10138c0000179800111798006e019000fe01900054
:10139c000a00be003cfe07000001be000e109000cb
:1013ac009e10900080fc07000001be002e109000e3
:1013bc00be1090007dfc0700e0dd8800f1dd8800a8
:1013cc0004de800015de8000241798003517980085
:1013dc001e01be000a00be002bfe0700001798007d
:1013ec00111798002e019000be0190000800be005d
:1013fc0025fe07000001be000e1090009e1090000c
:10140c0069fc070000179800111798006e019000f6
:10141c00fe0190000c00be001bfe07000001be0088
:10142c000e1090009e10900060fc07000001be00a2
:10143c002e109000be1090005cfc070000de8800af
:10144c0011de880024de800035de800064179800f1
:10145c00751798001e01be000800be000afe0700aa
:10146c000004be002e019000be0190000a00be00d8
:10147c0005fe07000001be000800be004bfc070083
:10148c000004be004e019000de0190000c00be0076
:10149c00fdfd07000001be000800be0042fc070075
:1014ac000001be006e109000fe1090003ffc070083
:1014bc0020de880031de8800c0dd8000d1dd8000b8
:1014cc00c2dd8000d3dd8000ecdd8000fddd80001e
:1014dc00eadd8000fbdd800004de800015de80008c
:1014ec00241f9800351f980004de800015de800054
:1014fc00041f9800151f980024de800035de800044
:10150c00641798007517980024de800035de800083
:10151c004417980055179800dbfd07000004be0027
:10152c000a01be000c00be00d7fd07000001be0082
:10153c000800be001dfc07000004be000e19900040
:10154c009e1990002e189000be189000cefd07003a
:10155c000001be000800be0014fc07000004be0021
:10156c004e119000de1190006e109000fe10900055
:10157c00c5fd07000001be000800be000bfc070003
:10158c008182d1000082d300f89d250079f32500db
:10159c000404540085845c000200200003f0230046
:1015ac00b9fd07000801be00b7fd07000001be0031
:1015bc000800be00b4fd07000001be0000002000c2
:1015cc0001fc2300f8fb07000001be000800be0070
:1015dc00adfd07000004be00c0dd8000d1dd800041
:1015ec000801be00a8fd0700c0dd8800d1dd880021
:1015fc00e0dd8000f1dd80000801be00a2fd0700e7
:10160c00e0dd8800f1dd880000de800011de800066
:10161c000801be009cfd070000de880011de88007a
:10162c0020de800031de80000801be0096fd070040
:10163c0020de880031de88004f06be004f05be005c
:10164c004f04be000080fa00000006000000fa0003
:10165c0000a82100610020001a030700a000200050
:10166c0001002000930407003403070000cdb300f1
:10167c004403070000c1b3004203070030c0b300ad
:10168c00400307003303070000cdb3003d03070000
:10169c0050c1b3003b03070000c8b3003903070077
:1016ac002c03070000cdb3003603070060c1b30064
:1016bc003403070010c0b3003203070025030700f2
:1016cc0000cdb3002f03070080c1b3002d0307002a
:1016dc0010c0b3002b030700240307002081210056
:1016ec00ac03070020812100b203070001cdb30039
:1016fc0020812100e403070021c0b30020812100d8
:10170c00e103070020812100bb03070011cdb300ca
:10171c0020812100dc03070020812100ed0307005c
:10172c0041a2210020812100fc030700208121001f
:10173c00e803070051a2210020812100f7030700d4
:10174c0020812100e303070061a2210020812100f8
:10175c00f203070020812100de03070071a22100a3
:10176c0020812100ed03070020812100d90307000f
:10177c0081a2210020812100e803070020812100a3
:10178c00d403070091a2210020812100fa03070055
:10179c0020812100aa030700e4802000a4d0880047
:1017ac00544280003400b3000420a100544288004d
:1017bc000288a9002288a8000080fa000000060018
:1017cc002a00fa00889fbe008a9fbe008c9fbe0034
:1017dc0040179800caa1210064044500a480210090
:1017ec003400be002401be0085bb210007000900a7
:1017fc00351f78000e01b100c6d08000d7d0800014
:10180c00060f9800170f98001a03be00260f9800b9
:10181c00370f98001803be00460f9800570f98001a
:10182c005403be004402be000400e1000588e10040
:10183c000690e1000798e100e8ff3a001e04be00a4
:10184c002e059000be0590000801be000800be00e9
:10185c0056fb07000001be000800be000afd070091
:10186c000200200003f823004ffb07000006be0017
:10187c000a01be000a00be004cfb07000001be00be
:10188c000a00be0000fd07000001be000c00be00f7
:10189c0046fb0700600f9800710f98004e039000f4
:1018ac00de03900026179800371798006e02900000
:1018bc00fe02900004179800151798000601be0050
:1018cc000a00be00f0fc07000006be000e119000de
:1018dc009e1190000800be00ebfc07000001be004a
:1018ec000c00be0030fb07000001be002ffb070000
:1018fc006e099000fe09900089fb070002ee2200a1
:10190c0053262400e0fc0700ce129000808abe0013
:10191c000e1190009e1190000a00be00dafc070028
:10192c000005be002e119000be1190000800be00f4
:10193c00d5fc07000001be000a00be001bfb07001f
:10194c000001be0019fb07000001be006e089000ec
:10195c00fe08900072fb070002ee220053262400c2
:10196c00c9fc070002002000432b24000efb0700db
:10197c004e13900020039800310398000e0890003d
:10198c009e0890002e0d9000be0d90004e0e900003
:10199c00de0e90000001be00bbfc07000004be0080
:1019ac000a01be000a00be00b7fc07000001be0021
:1019bc000800be00fdfa07000004be000c01be00ca
:1019cc000c00be00b0fc07000001be000800be0009
:1019dc00f6fa0700e0fc0700ce139000c003980055
:1019ec00d10398004f06be004f05be004f04be0049
:1019fc000080fa00000006001000fa000700090041
:101a0c00001feb000e01b1000400200005f82300bc
:101a1c00048fbe0084bb2100070009003e1a780029
:101a2c000e01b1000080fa00000006003600f8003c
:101a3c00809fbe00829fbe00849fbe00869fbe001a
:101a4c003200f80000202000900188000000000007
:101a5c000800fa000e0078007a0307003e02be0070
:101a6c002e03be00a08021000498be000690be008c
:101a7c00208121006b0207000288a9000080fa0077
:101a8c003200f9004f03be004f02be004f01be00f2
:101a9c004f00be003600f900004006000000fa00be
:101aac002202ab00010032000168a8002222ab0028
:101abc00040032002222a90014c0b30004007800f4
:101acc0008f4b70030a0800024a08000040050006f
:101adc00f03fb2000080fa00000006000000fa009f
:101aec0024a080009540210084824200154078009b
:101afc000402e80024a08800f43f200045402100a7
:101b0c00950a62000080fa00000006000000fa004e
:101b1c001080800004808000040050000080ea00e7
:101b2c00f03fb2000080fa00000006000000fa004e
:101b3c00148080004500210084824200804a780095
:101b4c000402e80014808800f43f200025002100e6
:101b5c00950a620004002100054180000502620024
:101b6c0002003a000188a8002188a8000080fa0031
:101b7c00000006000000fa00889fbe008a1f780053
:101b8c000005780081047800e0ff0700000278006f
:101b9c0010002000890f52000d0039000000eb00ee
:101bac00808f54000a0032000002eb00040478001d
:101bbc000402450014407800dcff07000804e8002c
:101bcc0008027800888f5400f9ff3e000000eb00fb
:101bdc004f0578004f04be000080fa00000006009c
:101bec000000fa00881f7800000478001840780084
:101bfc00e04f500004003200ccff07005840780042
:101c0c00e04f5000fcff3a004f0478000080fa00cf
:101c1c00000006000000fa000614f8000414f90095
:101c2c000874ef000080fa00000006000000fa00c3
:101c3c000010f8000210f9000080fa000000060005
:101c4c000000fa000002eb00041188001411880057
:101c5c000168a9000188a90060a7a800edff070092
:101c6c00f2ff07000080fa00000006000000fa00f6
:101c7c00881f780000047800f1ff070060a7a90016
:101c8c0048429000e04f52000400320004118000e2
:101c9c000480a1000490a00004118800284a900040
:101cac00e04f5200020032002082a80023c2a8009c
:101cbc0068429000630262000402420095ff2f000c
:101ccc0006118000868262000502720004118800f1
:101cdc00084a900061026200e5ff2f0006118000a7
:101cec008682620005027200041188002062a8003e
:101cfc0023e2a8001800be008efb070002002000a3
:101d0c0003082400e0fb07000001be00003b280094
:101d1c0051c8240004fb07000200200003f8230034
:101d2c0021fa07000200200003f023001ffa07002d
:101d3c0062fb07004011880021e2a8002342a800a2
:101d4c002442800004c0a10004d0a00004e0a10043
:101d5c0024428800344280000400a1000410a0003a
:101d6c000420a100344288000168a9002168a80061
:101d7c004f0478000080fa00000006000000fa0012
:101d8c0008d4bf000080fa00000006000000fa0032
:101d9c000874ef000080fa00000006000000fa0052
:101dac00000021002008b6000000e9004f00de0012
:101dbc000080fa0000000600809fbe00849fbe00d9
:101dcc00869fbe003200f8000020200090018800a1
:101ddc00000000000000fa0090402100f73f2000b6
:101dec0011c0b300110037003611800025a080000f
:101dfc0034a080008502e900848f520004003a0070
:101e0c008000fd0008f4b7008000fd0007003700db
:101e1c0034a0800084024000864a78000402e80066
:101e2c0034a0880064402100148a63002202ab00b5
:101e3c00edff3a000168a9000080fa003200f900b9
:101e4c004f03be004f02be004f00be000040060014
:101e5c00801f7800849fbe00869fbe003200f80071
:101e6c000020200090018800000000000000fa0013
:101e7c002188a9000188a9000420200015118000e8
:101e8c000502620018003a00058080001480800072
:101e9c00848f520006003a00140037000580800041
:101eac0014808000848f520004003a000f00370029
:101ebc0040002100f73f2000062020000480800015
:101ecc00840240009502fb00251188000402e80002
:101edc000480880004002100148a6300151180001e
:101eec0005026300edff32002188a8000080fa0093
:101efc003200f9004f03be004f02be004f007800c5
:101f0c00004006000000fa003202ab000100320073
:101f1c0003c8a8003222ab00040032003222a90010
:101f2c0014c0b30004007800b2fab700a0d580004a
:101f3c00b4d58000040050000080fb000080fa0043
:101f4c00000006000000fa00b4d5800085ab21002b
:101f5c0084824200154078000402e800b4d5880061
:101f6c00f40f200065ab2100950a62000080fa0096
:101f7c00000006000000fa0080d1800074d18000bf
:101f8c00040050000080ea00f007b2000080fa0064
:101f9c00000006000000fa0084d1800025a3210077
:101fac0084824200804a78000402e80084d18800d0
:101fbc00f407200005a32100950a62000400280004
:101fcc00154180000502620002003a0003e8a800f7
:101fdc0023e8a8000080fa00000006000000fa00c8
:101fec00889fbe008a1f7800000578008104780065
:101ffc00e0ff07000002780010002000890f52005b
:10200c000d0039000000eb00808f54000a003200f4
:10201c000002eb0004047800040245001440780030
:10202c00dcff07000804e80008027800888f5400e1
:10203c00f9ff3e000000eb004f0578004f04be0096
:10204c000080fa00000006000000fa00881f7800eb
:10205c000004780018407800e04f50000400320073
:10206c00ccff070058407800e04f5000fcff3a00ce
:10207c004f0478000080fa00000006000000fa000f
:10208c00b41af800b61af900b27aef000080fa0020
:10209c00000006000000fa002e1af800301af900b1
:1020ac000080fa00000006000000fa000002eb00bd
:1020bc00841188009411880003c8a90003e8a900c2
:1020cc0060c7a800edff0700f2ff07000080fa00d0
:1020dc00000006000000fa00881f78000004780059
:1020ec00f1ff070060c7a90048429000e04f520082
:1020fc0004003200841180000480a1000490a00030
:10210c0084118800284a9000e04f520002003200ef
:10211c003082a80033c2a8006842900063026200bb
:10212c000402420095ff2f00861180008682620017
:10213c000502720084118800084a90006102620056
:10214c00e5ff2f0086118000868262000502720076
:10215c00841188003062a80033e2a800f412200039
:10216c00c411880031e2a8003342a80074428000f8
:10217c000480a1000490a00004a0a1007442880077
:10218c007442800004c0a10004d0a00004e0a100af
:10219c007442880003c8a90023c8a8004f04780023
:1021ac000080fa00000006000000fa00b2dabf005e
:1021bc000080fa00000006000000fa00b27aef007e
:1021cc000080fa00000006000000fa000000280061
:1021dc002208b60000f0a7000000ea000000e900a9
:1021ec004f00de000080fa0000000600801f78001f
:1021fc00849fbe00869fbe003200f80000202000a5
:10220c0090018800000000000000fa0023e8a900fb
:10221c0003e8a9000420200095118000050262004b
:10222c0018003a0075d1800084d18000848f520050
:10223c0006003a001400370075d1800084d180006c
:10224c00848f520004003a000f00370020a32100b5
:10225c00f70720000620200074d180008402400083
:10226c009502fb00251188000402e80074d1880057
:10227c00e4a22100148a630095118000050263001a
:10228c00edff320023e8a8000080fa003200f900cc
:10229c004f03be004f02be004f0078000040060006
:1022ac000000fa000002eb00341088004410880093
:1022bc002228a9000228a90060e7a8000080fa00e3
:1022cc00000006000000fa00889fbe000004be005b
:1022dc00f3ff070060e7a9000800be0015fa07002d
:1022ec000001be00003b280051c824008ef90700f5
:1022fc000200200003f82300abf80700a299290084
:10230c0013112400a8f80700cbf90700201088004f
:10231c000722a8000702a80007e2a800f4fc2f007f
:10232c0045428000050262000460a000444288001f
:10233c004f04be000080fa00000006000000fa0006
:10234c000602a8000602ab00feff3a000080fa006d
:10235c00000006000000fa000622a8000622ab00ce
:10236c00feff3a000080fa00000006000000fa00b0
:10237c000642a8000642ab00feff3a000080fa00bd
:10238c00000006000000fa000000fb00101088009e
:10239c00050024004610800006826200fdff3a0012
:1023ac000080fa00000006000000fa0040108000d7
:1023bc004f00de000080fa00000006000000fa006a
:1023cc000662a8000662ab00feff3a000010800017
:1023dc000080fa00000006000000fa0006a2a90026
:1023ec000682a8000682ab00feff3a000080fa00cd
:1023fc00000006000000fa0006a2a8000682a80051
:10240c000682ab00feff3a000080fa0000000600d6
:10241c000000fa002208d500610060000080fa007c
:10242c00000006000000fa00881f78000004780005
:10243c00f7ff07000042780010002000e04f520028
:10244c0005003a00a8de88000000eb0020049a008a
:10245c000228a8002228a8004f0478000080fa0067
:10246c00000006003600f800809fbe00829fbe0070
:10247c00849fbe00869fbe003200f8000020200022
:10248c0090018800000000000000fa000228a9005a
:10249c00a4de8000a40292000503e80026029a0044
:1024ac0005034200164378000603fb00cfb3de00a1
:1024bc00e60f5300e08f5b0027003e00060601008c
:1024cc000600370007003700080037000900370006
:1024dc000d0037000e003700160037000602a8006a
:1024ec00240037000622a800220037000642a8006c
:1024fc002000370005024200144291000402fb0048
:10250c00141088001b0037000662a8001900370061
:10251c001508b000858242000502420014027800c2
:10252c0005108000054a780006a2a9000682a800c2
:10253c00100037001508b0008582420005024200e9
:10254c001402780005108000054a780006a2a80045
:10255c000682a800070037002228a900a4de80000c
:10256c0094029200e08f520002003200140292009a
:10257c00040001000080fa003200f9004f03be0095
:10258c004f02be004f01be004f00be003600f900e6
:10259c00004006000000fa0074c0b3000448780044
:1025ac000002eb0024009a0014009a000080fa004c
:1025bc00000006000000fa00200292001500200026
:1025cc00f6072000860f520008003c0084024000f1
:1025dc00804aeb000402e80024009a000402400048
:1025ec0075c0b300054a78008002eb000500780046
:1025fc000080fa00000006000000fa0020029200a1
:10260c0015002000f6072000860f520009003c0040
:10261c008402400016c0b300864a78000402e80029
:10262c0024009a000402400075c0b300054a7800eb
:10263c008002eb00050078000080fa000000060024
:10264c000000fa002002920015002000f60720007e
:10265c00860f520009003c008402400026c0b300e3
:10266c00864a78000402e80024009a000402400024
:10267c0075c0b300054a78008002eb0005007800b5
:10268c000080fa00000006000000fa002002920010
:10269c0015002000f6072000860f52000a003c00af
:1026ac00840240009142990036c0b300864a7800fb
:1026bc000402e80024009a000402400075c0b30034
:1026cc00054a78008002eb00050078000080fa00d3
:1026dc00000006000000fa00200292001500200005
:1026ec00f6072000860f520009003c0084024000cf
:1026fc0046c0b300864a78000402e80024009a0021
:10270c000402400075c0b300054a78008002eb005b
:10271c00050078000080fa00000006000000fa00b6
:10272c002002920015002000f6072000860f5200b0
:10273c000e003c0015082000848242008582420075
:10274c0085024000810a78008402400056c0b30024
:10275c00864a78000402e80024009a000402400033
:10276c0075c0b300054a78008002eb0005007800c4
:10277c000080fa00000006000000fa00200292001f
:10278c0015002000f6072000860f52000e003c00ba
:10279c001508200084824200858242008502400098
:1027ac00810a78008402400066c0b300864a780033
:1027bc000402e80024009a000402400075c0b30033
:1027cc00054a78008002eb00050078000080fa00d2
:1027dc00000006000000fa0061c7a90061e7a9002b
:1027ec001e61a8001fe1a800744280000400a00034
:1027fc000410a1000420a000744288000388a900e2
:10280c002388a8000080fa00000006000000fa00ef
:10281c001fe1a9002388a90061c7a80061e7a800ef
:10282c000080fa00000006000000fa00a4088000f6
:10283c0004087800b4088000140098000080fa00a6
:10284c00000006000000fa00889fbe008a9fbe00b0
:10285c006033b80084bc21003404be002405be00e3
:10286c00a508800005087800b508800015009800c0
:10287c002600980037009800b40f1400a48f1c0099
:10288c00f4ff3a003002be002003be0004044400f2
:10289c0085844c0006054d0087854d000898be00c8
:1028ac000a90be004f05be004f04be000080fa0027
:1028bc00000006001000fa00889fbe008a9fbe0030
:1028cc000004be000e007800deff07003e00be00d4
:1028dc002e01be004007980051079800620798002f
:1028ec00730798000617210086cbb9000803430034
:1028fc00041721000442b800850243000404be0002
:10290c000005eb008a0578000e007800cdff07006b
:10291c003e02be002e03be004e009000de00900072
:10292c006e019000fe0190000002520081825a005c
:10293c0002035b0083835b000820e10009a8e1002f
:10294c000ab0e1000bb8e100efff39004f05be0003
:10295c004f04be000080fa0000000600809fbe00fd
:10296c00829fbe00841f7800889fbe008a9fbe0095
:10297c003200f800002020009001880000000000c8
:10298c000000fa0084bc21003404be002405be0003
:10299c00f0ff2f00f1ff2f006011b800080040007d
:1029ac00898048000a0149008b814900009abe00c9
:1029bc000292be000388a9000080fa003200f900e0
:1029cc004f05be004f04be004f0278004f01be0001
:1029dc004f00be00004006000000fa004404200036
:1029ec00343a8800f4f32f0045742000950a6200f5
:1029fc0004fe2f00263a8000060262000400a000ac
:102a0c00243a880004022000173a80000702620072
:102a1c0006003a000003eb000502200076708800e7
:102a2c00173a800007826200fcff32000002eb00c4
:102a3c00f470880074718800f40f2800056a200077
:102a4c00950a620004f82f00263680008602620088
:102a5c00c502b30025368800f50f2c0047348000e2
:102a6c00878262000580a0004534880035368000de
:102a7c00050262008401b3003436880004fc2f0088
:102a8c0016348000060262003400b300143488004f
:102a9c00008ea900012ea900048ea8000080fa0067
:102aac0000000600801f7800849fbe00869fbe0039
:102abc003200f80000202000900188000000000087
:102acc000000fa003202ab0013003200f6df2f00d8
:102adc00b41180000402fb002411880024708000d3
:102aec004922de000482ea00610262004922dd0014
:102afc002770800087026300050272002470880032
:102b0c003202ab00f2ff3a0014c0b30004007800ac
:102b1c00d6fbb700d77bef0003c8a9000080fa00f2
:102b2c003200f9004f03be004f02be004f00780088
:102b3c00004006000c00fa00a7ff070004202c0040
:102b4c0015002000048fbe000042eb0044479800a3
:102b5c008002eb003507980045079800244f980039
:102b6c000e00780041fc07000e00780059fd0700ac
:102b7c00ffff37000000fa00889fbe008a9fbe004e
:102b8c00a8fb2f00f9ff2f004a0320000b002000a8
:102b9c0048003700d1fb07000000fb00cf80de00af
:102bac000000440081804c008a0f50008b8f58002d
:102bbc0040003e0000060100350037003d003700a4
:102bcc003c0037003b0037003a0037003900370033
:102bdc003800370037003700360037003500370033
:102bec0034003700330037002e0037003100370037
:102bfc00300037002f0037002e0037002d00370033
:102c0c002c0037002b003700280037002900370034
:102c1c002800370027003700260037002500370032
:102c2c002400370023003700220037002100370032
:102c3c00200037001f003700140037001d0037003c
:102c4c001c0037001b0037001a0037001900370032
:102c5c001800370017003700160037001500370032
:102c6c0014003700130037000e0037001100370036
:102c7c00100037000f0037000e0037000d00370032
:102c8c000c0037000b00370008003700210007004c
:102c9c002f000700007d20000100200005ff070029
:102cac00040037000000fe000200370052fb070052
:102cbc001d00070079fb0700e00f5000b5ff3a003c
:102ccc004f05be004f04be000080fa000000060055
:102cdc000400fa000e007800d3fe07001e02be00ae
:102cec0080de800091de80000000520081805a005e
:102cfc00f6cb250057012000860f5000878f580017
:102d0c000200360084de880095de88000080fa0020
:102d1c00000006005000fa000e007800b0fb07001f
:102d2c000080fa00000006000000fa00207e280057
:102d3c00abfb07000080fa00000006000000fa0060
:102d4c00907e2800a6fb07000080fa000000060019
:102d5c004000fa000e0278006694260027d7260061
:102d6c00069abe007617260027572600069abe0044
:102d7c0005022000050a78000e00780085f807008f
:102d8c0000024700157f28001b000900355a780007
:102d9c000e0078007ff8070000004700d4c0b30095
:102dac0004587800a4c0b300045878000048eb0025
:102dbc000e0078008afb07000080fa000000060075
:020000040000fa
:102dcc00d41b000002000000800000000010000076
:102ddc000a08000080000000d01b00000400000066
:102dec00800000000a18000024020000800000008f
:102dfc00b81b0000100000008200000000008000e2
:102e0c003f00000000000000000000000000000077
:102e1c0000000000d61b0000020000008000000033
:102e2c00c81b000008000000800000002e1a0000e3
:102e3c008a01000080000000d81b00000200000086
:082e4c008000000000000000fe
:020000040000fa
:02000004000af0
:04afe000dfff00008f
:020000040000fa
:02000004000af0
:04afe8007fff0000e7
:020000040000fa
:02000004000af0
:04afec003eff000024
:020000040000fa
:02000004000af0
:04aff000fbff000063
:00000001FF
