:020000040000fa
:080000000002040000000000f2
:020000040000fa
:10000800d6020000d6020000d6020000d602000088
:10001800d6020000d6020000d6020000d602000078
:10002800d6020000d6020000d6020000d602000068
:10003800d6020000d6020000d6020000d602000058
:10004800d6020000d6020000d6020000821a000084
:10005800e21a0000d6020000d6020000d602000014
:10006800d60200004c1e0000d6020000d602000096
:10007800bc180000d6020000d6020000d60200001c
:10008800d6020000d6020000d6020000d602000008
:10009800c8200000d6020000b01c0000101d00009f
:1000a800d6020000d6020000d6020000d6020000e8
:1000b800d6020000d6020000d6020000d6020000d8
:1000c800d6020000d6020000d6020000d6020000c8
:1000d800d6020000d6020000d6020000d6020000b8
:1000e800d6020000d6020000d6020000d6020000a8
:1000f800d6020000d6020000d6020000d602000098
:10010800d6020000d6020000d6020000d602000087
:10011800d6020000d6020000d6020000d602000077
:10012800d6020000d6020000d6020000d602000067
:10013800d6020000d6020000d6020000d602000057
:10014800d6020000d6020000d6020000d602000047
:10015800d6020000d6020000d6020000d602000037
:10016800d6020000d6020000d6020000d602000027
:10017800d6020000d6020000d6020000d602000017
:10018800d6020000d6020000d6020000d602000007
:10019800d6020000d6020000d6020000d6020000f7
:1001a800d6020000d6020000d6020000d6020000e7
:1001b800d6020000d6020000d6020000d6020000d7
:1001c800d6020000d6020000d6020000d6020000c7
:1001d800d6020000d6020000d6020000d6020000b7
:1001e800d6020000d6020000d6020000d6020000a7
:1001f800d6020000d6020000d6020000d602000097
:10020800d6020000d6020000d6020000d602000086
:10021800d6020000d6020000d6020000d602000076
:10022800d6020000d6020000d6020000d602000066
:10023800d6020000d6020000d6020000d602000056
:10024800d6020000d6020000d6020000d602000046
:10025800d6020000d6020000d6020000d602000036
:10026800d6020000d6020000d6020000d602000026
:0c027800d6020000d6020000d6020000f2
:020000040000fa
:100400000fcd21000eff27000e0188000000000024
:10041000000020000000e000020032000001200087
:10042000200288000c00070060102200010020005c
:100430000f000700000020000000e0000200320072
:100440000000020000000000222302000000000063
:100450000040da000000fe00a00320000000e000e1
:1004600002003200002020009001880000000600f9
:10047000a1028800800078000000eb001a0037001d
:10048000e280400054a0b4009101ba00e280400034
:1004900054a0b4009102ba00e280400054a0b4001d
:1004a0000002eb00472bde00f507b200a601880032
:1004b000602ce10008003a000049eb000201e8006e
:1004c000020039003420ec0002f0a0008301e900b2
:1004d000f9ff3e00040037006128e100010032000e
:1004e0000082eb00040007001101ba000200e000e6
:1004f000e3ff3a000000060004d0a300e20f490029
:100500001c003900810278003549ba000201e80078
:10051000020039003420ec0002f0a0008301e90061
:100520000f0032002549ba000201e800020039003c
:100530003420ec0002f0a0008301e9000800320042
:100540000400e0000600320015c9ba000201e8000c
:10055000020039003420ec0002f0a0008301e90021
:100560008180e80054a0b4000300e000e2ff3a00fc
:10057000000006009102ba00055978008301e900e5
:10058000f7ff3200c82ade00055978008301e90030
:10059000f3ff32000400e000f1ff320011d9ba008d
:1005a000eeff3700ae130400000000000040da0048
:1005b0000000fe000a00fa00e20f500022003e0098
:1005c00074e68000e10f520006003200872320000d
:1005d000462320002423200005232000e08f530021
:1005e00004003a0087222000462220002422200016
:1005f00005222000000028001500600003003a00da
:10060000800b780007002800958a730005402000c1
:100610009482620001003a0014a0a00082027800d7
:1006200006003700940378000710b200fdff320087
:10063000b103fb00070b78008502e900e08f520050
:10064000f8ff3a0008003700340020001007980037
:1006500032079800040f7800210798000e007800f8
:10066000aa0607003e019000020078000080fa0010
:100670000000060003f0a200889fbe008a9fbe0013
:100680008c1f78009b010700a20133006450e10039
:100690004f0032006420e1005200320003826c00ff
:1006a00007003b000905d0000306d000820f54006c
:1006b0000c065d000200390002003200890178005a
:1006c000030678008582550004003d000003fd000c
:1006d0008103fd008502ea008b854200840f7200d1
:1006e00002003b0060001000e08018006011b800bc
:1006f0000005eb007a28e1000a00390006007800c6
:10070000c75ddd00f707b200878075002d00370058
:10071000828171000a017800610560008180d1004a
:100720000080d3008502e900f9ff3b000604400089
:100730008784480002003b0060041400e0841c0031
:100740000988a300070032008a817100828171004c
:10075000610164008904d1000884d3008b05e8009e
:10076000170037000978a30013003a000b00e000df
:10077000130034008b05e9000804440089844c0010
:100780000a4474000978a3000d003a000b00e00051
:10079000070034008b05e9000804440089844c00fc
:1007a00001003a000b0020000978a300f7ff320097
:1007b0000001eb0002003700828171000a0178001d
:1007c000110107000cf0a70001f0a0005a0137004a
:1007d0006420e10002003a00838f6c005a0133006c
:1007e0000801be000200be0053013700889fbe0012
:1007f0008a9fbe008c1f78003e0107001002200077
:1008000002003b00b0de8800420137008a0062002f
:100810006408e10002003a00b0de88004a013700b7
:100820006108e100fcff32000800be00030478000c
:100830007000070001f0a1000900070008f0a60001
:10084000040037000001be0091042400b0fd200028
:1008500088ff070009f0a70001f0a2003601370069
:10086000889fbe008a9fbe008c9fbe000004be0011
:100870000b0107000800be00890678006420e10033
:1008800008003900040032000160a00012022000bc
:10089000b2de88005300370091fc2300b0fd200039
:1008a0004e0037000006eb0009f0a10003f823001a
:1008b000020020000800be0090000700060034007f
:1008c00001f82300000020000801be0049000700d5
:1008d0000004be002c0020000800be0093e82300a6
:1008e000320a230085000700120034000801be0010
:1008f000d1fd2300703d2b005fff07000005be0007
:10090000b3f32300f27a26000800be0011010700ad
:1009100003f823000200200056ff07000801be0074
:1009200055ff07000a01be00320007000004be00a8
:100930000c06e8000800be0001f0a1000200200043
:10094000039823006d0007000800be001600350064
:100950000801be00ff0007000005be0032cd2c00dc
:1009600043fb230044ff0700809fbe00126928005c
:1009700003d52b000a00be00f6000700620f21001d
:1009800013ef2b003cff07000a01be00f100070037
:100990004f01be00170007000801be00ed00070070
:1009a0000801be0034ff07000c00e0000b0032001d
:1009b0000c10a70001f0a200b2fd200093fc230060
:1009c0006260e1000400320022a9200063f02300ed
:1009d0000c10a70063f8230027ff07000df0a70005
:1009e00001f0a2004f06be004f05be004f04be003e
:1009f00000000600889fbe008a9fbe008c1f780002
:100a0000bc000700c300330003866c006450e100a3
:100a10002e0032006420e100330032006150e1001a
:100a20002f0032006120e100310032008585550041
:100a3000eb07b00009002000080420000500370083
:100a40000804440089844c000a0031000603430076
:100a500087834b000001530081815b00f8ff330066
:100a60000203be000800a0000804440089844c0072
:100a7000f6ff3900c639dd00830173000100320042
:100a8000130020008904d1000884d3000998a30032
:100a9000050032000800a7000300a0008904d1006f
:100aa0000884d3008b05e8008904d1000884d300b2
:100ab0000001eb000281d2005300070001f0a10009
:100ac0000cf0a70001f0a0009b0037006420e100bb
:100ad0009d0032000801be000200be00f7ff370093
:100ae0006120e100980032006000b800f3ff370099
:100af0000000200001f82700f0ff3700140020005c
:100b0000fd0037000001be00650007000470a7006b
:100b100003f0a1006509b100160032000d00350098
:100b20006828e10006003500f0ff2f00f1ff2700e4
:100b30000300e00013003b00010028000000050056
:100b400000004000818048008502e900fcff3a0077
:100b500008003700f88f420002003c008000eb00e4
:100b6000000005008100d1000080d3008502e8006c
:100b7000fcff3a000300e00002003b0060001000b0
:100b8000e0801800000006000001be0044000700dd
:100b90000470a70003f0a10003f8a30013003a00bb
:100ba0006509b10010003200090035006928e10034
:100bb0000200350001002800000005000000400090
:100bc000818048008502e900fcff3a000000060031
:100bd000f88f4200050035008100d1000080d3006d
:100be0008502e800fcff3a00000006008000eb00f0
:100bf000000005004f89de0082017800d90037002f
:100c00006011b800e70037008100200061805500c6
:100c10000b003d000b00200061fe2f000100e100f1
:100c20001d00340082817100610164008904d100db
:100c30000884d3000000e800faff3a0071002000a9
:100c400061006400030070000200600009003200cf
:100c500061044400e0844c000988a50005003200ce
:100c60008b05e8006808e10002003a008904d10021
:100c70000884d300f20f20000258e10005003d0077
:100c8000c75ddd00f907b2008980750008007800b3
:100c9000000006000bf827008b007800000005001c
:100ca000c70ade00f107b200f50fb20008003200fb
:100cb000e1cf4200020032000170a00024000500d4
:100cc000810f700001003200040805004400050097
:100cd000810f700002003a00140005008502e9004f
:100ce0000000400081c04800fcff3b000170a000f4
:100cf000240005000004be00e9ff07000003be0059
:100d00000405be000200be00e5ff0700844f750029
:100d1000000006000200be006450e100050036003d
:100d20006420e100020036000968a30001003a00d7
:100d30000800be000160a0004f0678004f05be000d
:100d40004f04be0000000600f0ff2f00f1ff270057
:100d5000f9ff3700889fbe008a9fbe008c1f780075
:100d6000e4ff0700ebff330003866c006450e100f2
:100d7000240032006420e100270032006150e100cd
:100d8000220032006120e100210032008b85420008
:100d9000eb07b1000134b800003ab8000804420083
:100da00089844a00013ab8000030b80088804000c9
:100db00009014a000400330000004000818048001f
:100dc000020149008b05e900c909dd0083017000bb
:100dd0000100320013002000c814de004814dd00ba
:100de0004709de001200b200c808de000884700067
:100df00085ff070001f0a1000cf0a70001f0a000a2
:100e0000cdff37006120e100cfff32000801be00b6
:100e10000200be00f7ff37006150e100fcff3a001e
:100e2000c9ff3700889fbe008a9fbe008c1f7800d4
:100e30000004be009aff07000478a30026003a00d1
:100e40006120e1002500320009f8a30025003a00e6
:100e50006420e10021003200f507b1000508a3007d
:100e60000200320000004000818048006044b80069
:100e70000310200002002000000040008180480094
:100e80000805440089854c000a0541008b8549000e
:100e90000a0550008b855800030033000a00be008d
:100ea00002047400838474008301d1000281d300a2
:100eb000830f7100f0ff3a008904d1000884d30049
:100ec0006001490082017800c1adde00fb07b0007f
:100ed0004dff070098ff37000960a0000800be0022
:100ee00095ff370012022000b2de8800f0ff2f00cd
:100ef000f1ff270090ff3700889fbe008a9fbe0049
:100f0000841f78007bff07004f007800110033003a
:100f1000f0ff2f00838f6c0006003b000405650086
:100f20000a00a7000800370009f0a6001000200002
:100f300008003700820f5400838f5c0003003900e3
:100f40001000200001003e000000200009f0a70072
:100f50000000ea004f05be004f04be000000e000a4
:100f600000000600881f7800030478000300e000fa
:100f700007003d0060001000e080180060011900cb
:100f8000e081190002003b0001f02d000300370052
:100f90000400070008f0a70001f0a0004f0478004b
:100fa00000000600889fbe008a9fbe00008270007d
:100fb0000402710004827100260032000004be00a9
:100fc0000200be006011b8006b09200095022000ed
:100fd0000182cf000a0039000541b1000082cf0034
:100fe000070039000541b1000982cf000400390033
:100ff0000541b1000882cf00010039000541b10070
:1010000005425200120032000a003b00828171004a
:10101000610164008100d1000080d3008984d30085
:101020000884d3008b05e8000442e800f7ff3a008b
:10103000070037000804440089844c000000480081
:10104000818048008b05e9000442e900f9ff3a007d
:10105000edfe07004f05be004f04be000000060075
:101060000000fa00000278008042eb00b4cf1200ca
:10107000fdff3a000080ea000080fa000000420014
:10108000000006000c00fa00889fbe00f4ff270055
:1010900000047800540798008004eb00080f7800e3
:1010a0001907980028079800240c200068015700b1
:1010b00034079800ceb897000e00780006000700ad
:1010c0001e027800094a78001e0014004f04be007a
:1010d0000080fa00000006003a00fa00889fbe0077
:1010e000011798008a9fbe00421798008c9fbe008f
:1010f000800678000000eb0060179800720337004c
:101100008e10900054c2b3008100e80001179800cf
:10111000844f500006003a00010278000006eb0000
:1011200001c3b30000c2b300b7c2b3001000370060
:101130003d0290000404b200040032001d02780059
:10114000004a7800840ee800050037000000fb002c
:101150008d00780067030700e10f40005a0332005a
:101160006e1190000201e8006217980056033700e4
:1011700084027800d3c2b30034437800834f530015
:101180000900320005003c00804f53000800320087
:10119000874f53000c003a0007003700814f53007f
:1011a00009003a00060037000c30a000f0ff3700bd
:1011b0000c00a000eeff37000c10a000ecff370081
:1011c0000c20a000eaff3700620266000100320036
:1011d0000c00a10068026600010032000c20a10092
:1011e0000602fb000403b100e90f52000c003e00b0
:1011f000050378000002eb00b602fb00ea22b9000a
:101200000503b1009603fb00048242000703b1000e
:1012100086027800e98f5300f7ff36000800370098
:101220000002eb00a7c2b300874f530004003a004e
:101230004e1390008502e800460278004617980099
:101240008003eb00e6c2b30057179800954f1300d8
:101250000c003a000ce0a00064435300d54f13008b
:10126000030032000503780007007800090037000a
:101270004e1490008502e800c804780048179800d2
:10128000591798000503780009003700ea00b900f3
:101290000080430086027800b603fb000703b1001c
:1012a000e98f5300f9ff360050179800f5ff37001b
:1012b000b6427800cbc6b300061798008bcf520019
:1012c000250032000f003c0036c6b30086cf520026
:1012d000a300320004003c00e0cf5200ff023200c5
:1012e0006b4353000f00370046c6b30086cf520051
:1012f000170032006543430086cf5200b6003a0023
:101300001300370036c7b30086cf520020003200ea
:1013100007003c006443530086cf520015003200a2
:101320000643e80086cf5200ab003a0014003700b5
:1013300056c7b30086cf5200ac003200634343006f
:1013400086cf5200a4003a00054f78000e00370007
:10135000054f7800a7003700f00366000501200064
:1013600001003200050028008c827200050678001a
:10137000cfff3700054f78000c60a0009d003700bc
:10138000054f78000c50a0000c70a00099003700a9
:101390004e109000054f7800c0027800401798006a
:1013a00075179800e08f520002003a00a2bf21009a
:1013b000721798007e1390008002eb000100370046
:1013c0008502e800850343008041eb0097cf1100c0
:1013d000fbff3a00051f9800de129000e08f5200dc
:1013e000050032000e1b9000868f52000200310073
:1013f00085037800071f98008e1a90000004eb0008
:10140000850f520001003600050452006806660090
:1014100009c2b300110032002d0037003d029000d8
:101420000404b200040032001d027800094a78006a
:10143000840ee800050037008d00780000022000cf
:10144000ac020700e10f4000030032006e1590006f
:101450000a05e8006a1798000804e900e00f540044
:10146000eeff3a000084eb0019003700bd02900047
:101470000504b20009003200880278009d0378005c
:1014800035437800864b780005047800870ee80025
:10149000e04f53000a003a0012003700880278003b
:1014a0008d0078003500fb00441f9800050478008b
:1014b000900207004e1a9000e10f40000900320030
:1014c0006e1090000000e8006017980005003700db
:1014d000080278007e1490008e1c90001e1d900063
:1014e000ae1d9000890278008504e900e08f52006b
:1014f000deff3a0078179800091f98001a1f98001d
:101500002b1f980004047800e00f56006e02320092
:1015100009c2b3006e1690000e0037003d02900025
:101520000404b200040032001d027800094a780069
:10153000840ee800050037008d00780000022000ce
:101540006c020700e10f4000010032000c06e800c9
:101550000804e900e00f5400f0ff3a005902370098
:10156000ce10900070036600410478004117980087
:10157000cfc4de00090578008a0578000800be00a7
:101580000a01be004800de00c80add0000807200cb
:10159000004f7800e00f530009003200e04f500088
:1015a00007003200e14f4000050032002600200015
:1015b0001047980028479800061f9800030037003e
:1015c00017002000071f9800184798000e04e80035
:1015d0007817980080ff37001a002000054f780028
:1015e0007e1798000a1f98007bff3700054f780090
:1015f0000c0cb3008c027800050cb2003b003a00e2
:10160000e00f560005003d00ce1290004501be00df
:101610004500be00451798000f003700f002660035
:10162000120032004e1490004803be004607980096
:10163000570798004817980098029000cfaade003c
:1016400065079800750798004e009000de00900036
:101650006e019000fe01900070179800011f980025
:10166000121f9800231f98000b003700ce10900027
:10167000c102780005047800cfc4de0009057800b7
:101680008a0578004117980078179800091f98007c
:101690001a1f98002b1f98007e1090008e18900043
:1016a0001e199000ae199000e00f5000e08f580016
:1016b000e00f5900e08f590032003d006000b80093
:1016c0006011b8007e1490008e1c90001e1d9000ca
:1016d000ae1d90003c00b3000804500089845800ff
:1016e0000a0559008b85590022003700e00f56008b
:1016f00005003d00ce1290004501be004500be0031
:10170000451798000f003700f00266001200320003
:101710004e1490008004eb004803be000005eb006f
:10172000460f9800570f9800690f98007a0f98009d
:101730004e089000de0890006e099000fe099000af
:101740004817980070179800011f9800121f980002
:10175000231f98000b003700ce109000c1027800c4
:101760004117980005047800090020000a002000b5
:101770000b00200078179800091f98001a1f980086
:101780002b1f9800de149000e08f54000d003a00eb
:101790001a0020007e1090008e1890001e199000f4
:1017a000ae1990005a179800e00f5000e08f5800d3
:1017b000e00f5900e08f5900020032008000eb007a
:1017c000511798000c01780005042000020cb200ab
:1017d00032179800850f51003400320003003c009e
:1017e000e00f5100080032004800370005082000d3
:1017f000be119000858f510014003200050c2000ae
:10180000858f510041003a00a6c0210015c0b300e9
:101810003600be003601be007e1490008e1c900083
:101820001e1d9000ae1d90000040e10001c8e100c7
:1018300002d0e10003d8e100330039008542e8001e
:10184000f4cf5200f2ff3a002f00370015c0b3006a
:1018500000012000010020006011b8007e149000fb
:101860008e1c90001e1d9000ae1d90000040e100f7
:1018700001c8e10002d0e10003d8e10022003900f4
:10188000490020000000d0008180d2000281d200f7
:101890008381d2008904e900faff3a008542e8001a
:1018a000f0cf5200edff3a001700370015c0b3002b
:1018b00080002000010020006011b8007e1490001c
:1018c0008e1c90001e1d9000ae1d90000040e10097
:1018d00001c8e10002d0e10003d8e1000a003900ac
:1018e000390020000000d0008180d2000281d200a7
:1018f0008381d2008904e900faff3a008542e800ba
:10190000f5cf5200edff3a00054f78009e02fb0034
:101910005e1590008a8f520002003d000a4f780049
:1019200004003700de159000858f550001003d0052
:1019300055179800e00f520003003200e3026600e2
:10194000010032000402e90005002400850266005f
:10195000060032005e109000800f5200020034003a
:1019600000025200010037000002eb008000eb0093
:101970009e02fb0021179800850f520002003400e0
:101980008502520025179800640266004500320067
:10199000e202660061026600e08f5200170032002a
:1019a000bd0290000504b200080032009d027800dc
:1019b000b6c2b300e00f52000100320006c3e800d7
:1019c000864a7800850ee80008003700b002200043
:1019d000e00f5200010032000080e8008d00780026
:1019e00044010700e10f4000160032006e11900024
:1019f0000201e8006217980012003700e00f520061
:101a0000100032003d0290000404b20005003200d4
:101a10001d02780005c2b300054a7800840ee80074
:101a2000050037008d00780000022000310107001a
:101a3000e10f400003003200ee1190008301e80046
:101a4000631798002e129000e00f52005b003200e6
:101a500008c3b300840478003d0290000404b2007f
:101a6000040032001d027800084a7800840ee80065
:101a7000050037008d007800000320001d010700dd
:101a8000e10f400003003200ee1290008502e800f2
:101a9000651798008904e900efff3a0029179800bc
:101aa000460037002e139000e00f5300160032005e
:101ab0006802660014003a0008c2b3008604780089
:101ac0003d0290000404b200040032001d027800c0
:101ad000084a7800840ee800050037008d00780081
:101ae0000002200003010700e10f40000300320064
:101af000ee1390008703e800671798008904e90057
:101b0000efff3a0029179800e202660061026600c2
:101b1000e08f520017003200bd0290000504b200b1
:101b2000080032009d027800b6c2b300e00f5200f8
:101b30000100320006c3e800864a7800850ee800fe
:101b400008003700b0022000e00f52000100320010
:101b50000080e8008d007800e6000700e10f4000fb
:101b6000160032006e1490000804e8006817980010
:101b700012003700e00f5200100032003d029000ca
:101b80000404b200050032001d02780005c2b30053
:101b9000054a7800840ee800050037008d007800c3
:101ba00000022000d3000700e10f400003003200d4
:101bb000ee1490008904e800691798005e15900003
:101bc00024c021008a02e900f0056600c32add0076
:101bd0000c007800048242000002b2001417980042
:101be0003b079800200798009c003700de1090000b
:101bf0003e1190008100e900030420005117980075
:101c0000830f51006f00320003003c00e00f5100d1
:101c1000080032007c00370004082000be1290004b
:101c2000848f520051003200040c2000848f520037
:101c300075003a00e00f56001b003d001e13900097
:101c40007e1090008e1890001e199000ae19900022
:101c50003604be002605be000802be000a03be0010
:101c6000e30107000802be000a03be00004f78002f
:101c70000000fb00cf80de000101780082017800c7
:101c80004c0207007e1490008e1c90001e1d9000d8
:101c9000ae1d90000004540081845c0002055d00cc
:101ca00083855d0020003700be049000e08f540063
:101cb000220032001e1090007e1290008e1a9000ba
:101cc0003004be002005be00441f98000400be0082
:101cd0000801be00351f9800100107000801be0072
:101ce000004f78000000fb00cf80de001b010700e2
:101cf0004e1a9000be1a90000001520081815a00d5
:101d00000002eb00020f9800130f9800340f9800a8
:101d10008001eb00230f98000e0c90009e0c9000a9
:101d20002e0d9000be0d900078179800091f9800a6
:101d30001a1f98002b1f9800090037009e1490006e
:101d40007e15900019027800110009000485d80062
:101d5000a4002000110009000480d800014f780081
:101d60000bc3b3001ecf45002700370094be2100ef
:101d70002e009000e00f50000100320084bd2100d1
:101d8000de109000c20add007e1090008e189000d8
:101d90001e199000ae1990008502e900050033007d
:101da0008301d1000281d3008180d3000080d30061
:101db000f9ff3700ef02600005024200144f78007f
:101dc000110037005e1190007e1490008e1c900070
:101dd0001e1d9000ae1d9000e312b90001c3b300b8
:101de000040078000000e900050033008b05d100f5
:101df0000a85d3008984d3000884d300f9ff370013
:101e000067426400014f42003d0290000404b200aa
:101e1000070032009d0278001e427800844a780054
:101e2000850ee800e04f520006003a000800370037
:101e30001e00fb008d0078002e000700e10f40001f
:101e4000030032006e1190000201e8006217980052
:101e50009e119000e8815100131798005e129000c7
:101e6000e00f520061ff3a0068066600160032007b
:101e7000ae129000e08f5200130034006e169000f6
:101e800008c2b300850478003d0290000404b2004b
:101e9000040032001d027800084a7800840ee80031
:101ea000050037008d0078000002200011000700b7
:101eb000e10f4000010032000c06e8008904e9004f
:101ec000f1ff3a006c1798000e139000164078004e
:101ed000004f7800e04f500089fc3a004f06be00ea
:101ee0006e1090004f05be004f04be000080fa0047
:101ef000000006000000fa00889fbe000104780080
:101f00008084eb0038029000e20262003b00320065
:101f100004037800980290000620b20002003a0004
:101f2000e08f520035003a000490a0008004780051
:101f300034049800f90fb200e08f520002003a001a
:101f4000a8029000050c7800ea8f540005003a00c2
:101f50000408b20003003a0088007800d000200096
:101f6000e4ff070018029000d8029000850f52008d
:101f70000b0032000402e80015c0b30014049800fe
:101f800018027800094a7800040ce80084cc21008b
:101f9000054a7800ea8f540018003a00050037001f
:101fa0000940780088007800180007008004780055
:101fb00012003700380290000410b2000f00320007
:101fc00018019000a80090004800900079f90700df
:101fd00018029000840f5000040032003802900074
:101fe0000403b300340498008084eb000002eb008b
:101ff0001404980028029000040c7800090078006e
:102000004f04be000080fa00000006000200fa0043
:10201000889fbe0001047800004f780038029000cd
:10202000840278000504b200020032000000fb00c8
:1020300033003700e202620005003a000403b300f7
:1020400015049800340498000080eb002c00370041
:10205000d8049000e08f540006003a0012002000df
:102060008e0078004800900052f90700190498008b
:1020700022003700a8029000e08f520008003a00ca
:10208000b5cc21000430a00025049800050c780090
:102090003404980025002000550498001504980089
:1020a00018019000a80090004800900041f9070036
:1020b000280290008082eb00150498001e4a7800e8
:1020c000040ce800a4c0b3009e4f12000b003a00bd
:1020d000380290000410b20008003200180190008d
:1020e000a80090004800900032f907000002eb00c1
:1020f0001404980028029000040c78001e00fb00d5
:102100004f04be000080fa00000006000000fa0044
:1021100000c0da000080fa00000006006022b8006b
:10212000060220000000d0008180d2000482d2008c
:102130008582d2000000a0000202520083825a0071
:10214000030031000202420083824a000000a10025
:102150000603e900f3ff3a0000000600020ab90096
:10216000001bb9000200b80081004200810043005a
:10217000000006000000fa00889fbe008a9fbe0093
:102180003004be002005be000404440085844c00d9
:1021900006054d0087854d000898be000a90be00d8
:1021a0000440e10005c8e10006d0e10007d8e100e5
:1021b00002003100680040001008e8004f05be0032
:1021c0004f04be000080fa00000006001000fa0074
:1021d000889fbe008a9fbe000605be000404be00a4
:1021e0003002be002003be00049fbe000697be0062
:1021f000110020000802520089825a000a035b0085
:102200008b835b0044079800550798006607980089
:10221000770798000498be000698be003e02be00f4
:102220002e03be000820e10009a8e1000ab0e10089
:102230000bb8e100010039008000eb004f05be0043
:10224000108810004f04be000080fa000000060055
:102250001400fa00889fbe005b0007008a9fbe0042
:102260008c9fbe000006eb004c0798003c079800ce
:102270002c0798001c0798000c0f78000605be007c
:102280000404be000d0420004e039000be02900026
:10229000860343002e029000e00f530003003d0030
:1022a0002a000700b3ff07000200370027000700dd
:1022b000c6ff0700ce029000150f9800e08f520075
:1022c000090035004500070014002000050020002b
:1022d0006033b80000007200818072000201730058
:1022e00083817300380007000c06e8008d0f56004c
:1022f000e5ff3a001e0a9000e00f520004003d0086
:102300000802be000a03be000e00780099ff070015
:102310004eba9700e00f520006003a003e04be009d
:102320002e05be0058079800690798007a079800a4
:102330000b0f98004f06be00280007004f05be0097
:102340004f04be000080fa00000006004f2bde00a4
:102350002200070086837300858242004f23de003f
:1023600047079800868272000402420035079800f1
:102370009e0290004f2bde00858242000602720012
:10238000240798001e0278004f23de00040242005a
:1023900086827200150798004f18de00000f720049
:1023a0000e0007000802be000a03be000000400045
:1023b0008180480002014900838149000200070032
:1023c0000e00780000000600500798006107980092
:1023d00072079800030f9800000006005e0090004e
:1023e000ee0090007e0190008e0990000000060033
:1023f0000000fa00881f780018002000881f78006d
:1024000093ff07008f87e9004f0478000080fa00ef
:10241000000006000000fa00801feb008cff0700a0
:102420008f87e9000080fa00000006000000fa0033
:10243000889fbe008a9fbe00e00f5000e08f5800ca
:10244000e00f5900e08f59000c003d006044b800d7
:102450006055b8000000540081805c0002015d00fe
:1024600083815d00180020001600070008003d0071
:10247000190007000004eb00050037000004eb0022
:102480001000070002003d001300070018002000a4
:10249000d7ff0700e00f5400060032006022b800aa
:1024a0006033b8000000520081805a0002015b00d6
:1024b00083815b004f05be004f04be000080fa0020
:1024c00000000600e00f5200e08f5a00e00f5b00b2
:1024d000e08f5b00000006006044b8006055b80063
:1024e0000402540085825c0006035d0087835d0062
:1024f000000006000000fa00889fbe008a9fbe0010
:102500008c1f7800e00f5000e08f5800e00f59005a
:10251000e08f59000d003d006044b8006055b800e0
:102520001c0020000000540081805c0002015d005e
:1025300083815d000820e10009a8e1000ab0e10004
:102540000bb8e1000d003d00080037000006eb006d
:10255000e00f5200e08f5a00e00f5b00e08f5b005d
:1025600006003d006044b8006055b8000402540005
:1025700085825c0006035d0087835d00a5ff070080
:10258000e00f5600060032006022b8006033b80049
:102590000000520081805a0002015b0083815b00d1
:1025a0004f0678004f05be004f04be000080fa00c1
:1025b000000006000000fa00889fbe008a9fbe004f
:1025c0008c1f78000006eb00e00f5000e08f5800f1
:1025d000e00f5900e08f590007003d006044b8004b
:1025e0006055b8001c0020000000540081805c0091
:1025f00002015d0083815d00e00f5200e08f5a0010
:10260000e00f5b00e08f5b0007003d006044b80016
:102610006055b8000c00a2000402540085825c00e2
:1026200006035d0087835d000d000700e00f560084
:10263000060032006022b8006033b800000052008b
:1026400081805a0002015b0083815b004f067800a5
:102650004f05be004f04be000080fa0000000600d7
:10266000889fbe008a9fbe008c9fbe000404b800f5
:102670000506b8008904460060854e000606b800cd
:102680000a054600e0854e000706b8008b054600a7
:10269000040eb800890446000a854e00e0854d000e
:1026a000050eb8000a0546008b854e00060eb800e0
:1026b0008b0546000416b8000a0546008b854e00bf
:1026c0000516b8008b054600041eb8008b054600b1
:1026d0000800be000a01be004f06be004f05be0046
:0826e0004f04be0000000600db
:020000040000fa
:1026e800256c0000642c0000256c0000642c0000a0
:1026f800256c0000640d00000a0000005a65000007
:10270800726f00000d0a000000520000657300009f
:10271800657400000d0a000000760000302e0000ed
:1027280030200000284d00006179000020200000c2
:102738003720000032300000313500002031000021
:10274800333a0000313800003a34000032290000e2
:04275800000000007d
:020000040000fa
:10275c003800fa00889fbe008a9fbe008c9fbe0086
:10276c00aa80210050d1800061d180003a02100073
:10277c00aa8218000400be001ef90700c2d326006e
:10278c005327230070f907000004be001a02be0094
:10279c0054d1880065d1880030d18000cf80de0014
:1027ac0011f9070002192c0093d7230066f90700d2
:1027bc00c0d08800d1d0880020d18000cf80de002e
:1027cc0009f9070002192c0093d723005ef90700c2
:1027dc00e0d08800f1d08800281aee00cf80de000f
:1027ec0001f9070002192c0093d7230056f90700b2
:1027fc0000d1880011d18800cad08000dbd08000c5
:10280c00e4d08000f5d08000241f9800351f98007c
:10281c0004d1800015d18000041f9800151f98006a
:10282c00e4dd8000f5dd80006417980075179800d2
:10283c0024de800035de8000441798005517980080
:10284c00c4dd8000d5dd8000241798003517980072
:10285c0004de800015de8000041798001517980020
:10286c00e4dd8000f5dd8000640f9800750f9800a2
:10287c0004de800015de8000440f9800550f980090
:10288c00c4dd8000d5dd8000240f9800350f980042
:10289c0024de800035de8000040f9800150f9800b0
:1028ac0085bb210007000900351f78000e01b1001f
:1028bc000200200003f023000800be0022f90700ec
:1028cc000004be0052a32f00e3c823000a00be0080
:1028dc001df907000801be001bf907000006be0029
:1028ec0052a32f00e3c823002e189000be189000ae
:1028fc0015f90700201f9800311f98004e11900009
:10290c00de1190006e109000fe1090000ef9070082
:10291c000005be000e1190009e1190002e1090002c
:10292c00be10900008f907000001be000a00be00ae
:10293c004ef707000001be004cf70700d2cc2c006c
:10294c00c3d4230000f907000001be002e1890002c
:10295c00be18900044f707000801be00faf8070003
:10296c000005be0052a32f00e3c823000e189000f0
:10297c009e189000f4f80700201f9800311f980053
:10298c004e099000de0990006e089000fe08900041
:10299c00edf80700001f9800111f98000e09900019
:1029ac009e0990002e089000be089000e6f80700e3
:1029bc000001be000e1890009e1890002af7070028
:1029cc000001be0029f70700d2cc2c00c3d4230091
:1029dc00ddf807000001be002e189000be18900014
:1029ec0022f707000801be00d7f807000004be005c
:1029fc00c4dd8000d5dd8000441798005517980081
:102a0c002e019000be01900003f0a2000c00be004d
:102a1c00cdf8070020179800311798004e01900050
:102a2c00de0190000a00be00c7f807000001be00de
:102a3c002e109000be1090000bf707002017980086
:102a4c00311798006e019000fe0190000800be0046
:102a5c00bdf807000001be002e109000be109000c3
:102a6c0001f707000001be004e109000de10900030
:102a7c00fef60700c0dd8800d1dd8800e4dd8000b3
:102a8c00f5dd800024179800351798001e01be0054
:102a9c000c00be00acf80700001798001117980046
:102aac004e019000de0190000800be00a6f8070061
:102abc000001be000e1090009e109000ebf6070077
:102acc0000179800111798006e019000fe019000fd
:102adc000a00be009cf807000001be000e1090001a
:102aec009e109000e0f607000001be002e10900032
:102afc00be109000ddf60700e0dd8800f1dd8800f7
:102b0c0004de800015de800024179800351798002d
:102b1c001e01be000a00be008bf8070000179800cb
:102b2c00111798002e019000be0190000800be0005
:102b3c0085f807000001be000e1090009e1090005a
:102b4c00c9f6070000179800111798006e01900045
:102b5c00fe0190000c00be007bf807000001be00d7
:102b6c000e1090009e109000c0f607000001be00f1
:102b7c002e109000be109000bcf6070000de8800fe
:102b8c0011de880024de800035de8000641798009a
:102b9c00751798001e01be000800be006af80700f9
:102bac000004be002e019000be0190000a00be0081
:102bbc0065f807000001be000800be00abf6070078
:102bcc000004be004e019000de0190000c00be001f
:102bdc005df807000001be000800be00a2f6070069
:102bec000001be006e109000fe1090009ff60700d2
:102bfc0020de880031de8800c0dd8000d1dd800061
:102c0c00c2dd8000d3dd8000ecdd8000fddd8000c6
:102c1c00eadd8000fbdd800004de800015de800034
:102c2c00241f9800351f980004de800015de8000fc
:102c3c00041f9800151f980024de800035de8000ec
:102c4c00641798007517980024de800035de80002c
:102c5c0044179800551798003bf807000004be0075
:102c6c000a01be000c00be0037f807000001be00d0
:102c7c000800be007df607000004be000e1990008f
:102c8c009e1990002e189000be1890002ef8070088
:102c9c000001be000800be0074f607000004be0070
:102cac004e119000de1190006e109000fe109000fe
:102cbc0025f807000001be000800be006bf60700f7
:102ccc008182d1000082d300f89d250079f3250084
:102cdc000404540085845c000200200003f02300ef
:102cec0019f807000801be0017f807000001be0024
:102cfc000800be0014f807000001be000000200010
:102d0c0001fc230058f607000001be000800be00bd
:102d1c000df807000004be00c0dd8000d1dd80008e
:102d2c000801be0008f80700c0dd8800d1dd88006e
:102d3c00e0dd8000f1dd80000801be0002f8070034
:102d4c00e0dd8800f1dd880000de800011de80000f
:102d5c000801be00fcf7070000de880011de8800c9
:102d6c0020de800031de80000801be00f6f707008f
:102d7c0020de880031de88004f06be004f05be0005
:102d8c004f04be000080fa00000006000000fa00ac
:102d9c0000a821006100200054030700a0002000bf
:102dac0001002000cd0407006e03070000cdb30026
:102dbc007e03070000c1b3007c03070030c0b300e2
:102dcc007a0307006d03070000cdb30077030700fb
:102ddc0050c1b3007503070000c8b30073030700ac
:102dec006603070000cdb3007003070060c1b30099
:102dfc006e03070010c0b3006c0307005f030700ed
:102e0c0000cdb3006903070080c1b300670307005e
:102e1c0010c0b300650307005e030700208121008a
:102e2c00e603070020812100ec03070001cdb3006d
:102e3c00208121001e04070021c0b3002081210045
:102e4c001b04070020812100f503070011cdb300fe
:102e5c00208121001604070020812100270407008f
:102e6c0041a221002081210036040700208121008d
:102e7c002204070051a22100208121003104070007
:102e8c00208121001d04070061a221002081210066
:102e9c002c040700208121001804070071a22100d6
:102eac002081210027040700208121001304070042
:102ebc0081a2210020812100220407002081210011
:102ecc000e04070091a22100208121003404070088
:102edc0020812100e4030700e43a2100a4d08800fb
:102eec00544280003400b3000420a10054428800f6
:102efc000288a9002288a8000080fa0000000600c1
:102f0c002a00fa00889fbe008a9fbe008c9fbe00dc
:102f1c0040179800caa1210064044500a480210038
:102f2c003400be002401be0085bb2100070009004f
:102f3c00351f78000e01b100c6d08000d7d08000bc
:102f4c00060f9800170f98001a03be00260f980062
:102f5c00370f98001803be00460f9800570f9800c3
:102f6c005403be004402be000400e1000588e100e9
:102f7c000690e1000798e100e8ff3a001e04be004d
:102f8c002e059000be0590000801be000800be0092
:102f9c00b6f507000001be000800be006af7070086
:102fac000200200003f82300aff507000006be0066
:102fbc000a01be000a00be00acf507000001be000d
:102fcc000a00be0060f707000001be000c00be0046
:102fdc00a6f50700600f9800710f98004e03900043
:102fec00de03900026179800371798006e029000a9
:102ffc00fe02900004179800151798000601be00f9
:10300c000a00be0050f707000006be000e1190002b
:10301c009e1190000800be004bf707000001be0097
:10302c000c00be0090f507000001be008ff50700f4
:10303c006e099000fe099000e9f5070002ee2200ef
:10304c005326240040f70700ce129000808abe0061
:10305c000e1190009e1190000a00be003af7070076
:10306c000005be002e119000be1190000800be009d
:10307c0035f707000001be000a00be007bf5070013
:10308c000001be0079f507000001be006e0890003b
:10309c00fe089000d2f5070002ee22005326240011
:1030ac0029f7070002002000432b24006ef50700cf
:1030bc004e13900020039800310398000e089000e6
:1030cc009e0890002e0d9000be0d90004e0e9000ac
:1030dc00de0e90000001be001bf707000004be00ce
:1030ec000a01be000a00be0017f707000001be006f
:1030fc000800be005df507000004be000c01be0018
:10310c000c00be0010f707000001be000800be0056
:10311c0056f5070040f70700ce139000c003980047
:10312c00d10398004f06be004f05be004f04be00f1
:10313c000080fa00000006001000fa0007000900e9
:10314c00001feb000e01b1000400200005f8230065
:10315c00048fbe0084bb2100070009003e1a7800d2
:10316c000e01b1000080fa00000006003600f800e5
:10317c00809fbe00829fbe00849fbe00869fbe00c3
:10318c003200f800002020009001880000000000b0
:10319c000800fa000e007800b40307003e02be00df
:1031ac002e03be00a08021000498be000690be0035
:1031bc0020812100a50207000288a9000080fa00e6
:1031cc003200f9004f03be004f02be004f01be009b
:1031dc004f00be003600f900004006000000fa0067
:1031ec002202ab00010032000168a8002222ab00d1
:1031fc00040032002222a90014c0b300040078009d
:10320c0008f4b70030a0800024a080000400500017
:10321c00f03fb2000080fa00000006000000fa0047
:10322c0024a0800095402100848242001540780043
:10323c000402e80024a08800f43f2000454021004f
:10324c00950a62000080fa00000006000000fa00f7
:10325c001080800004808000040050000080ea0090
:10326c00f03fb2000080fa00000006000000fa00f7
:10327c00148080004500210084824200804a78003e
:10328c000402e80014808800f43f2000250021008f
:10329c00950a6200040021000541800005026200cd
:1032ac0002003a000188a8002188a8000080fa00da
:1032bc00000006000000fa00889fbe008a1f7800fc
:1032cc000005780081047800e0ff07000002780018
:1032dc0010002000890f52000d0039000000eb0097
:1032ec00808f54000a0032000002eb0004047800c6
:1032fc000402450014407800dcff07000804e800d5
:10330c0008027800888f5400f9ff3e000000eb00a3
:10331c004f0578004f04be000080fa000000060044
:10332c000000fa00881f780000047800184078002c
:10333c00e04f500004003200ccff070058407800ea
:10334c00e04f5000fcff3a004f0478000080fa0078
:10335c00000006000000fa000614f8000414f9003e
:10336c000874ef000080fa00000006000000fa006c
:10337c000010f8000210f9000080fa0000000600ae
:10338c000000fa000002eb00041188001411880000
:10339c000168a9000188a90060a7a800edff07003b
:1033ac00f2ff07000080fa00000006000000fa009f
:1033bc00881f780000047800f1ff070060a7a900bf
:1033cc0048429000e04f520004003200041180008b
:1033dc000480a1000490a00004118800284a9000e9
:1033ec00e04f5200020032002082a80023c2a80045
:1033fc0068429000630262000402420095ff2f00b5
:10340c000611800086826200050272000411880099
:10341c00084a900061026200e5ff2f00061180004f
:10342c008682620005027200041188002062a800e6
:10343c0023e2a8001800be00eef5070002002000f1
:10344c000308240040f607000001be00003b2800e2
:10345c0051c8240064f507000200200003f8230083
:10346c0081f407000200200003f023007ff4070022
:10347c00c2f507004011880021e2a8002342a800f1
:10348c002442800004c0a10004d0a00004e0a100ec
:10349c0024428800344280000400a1000410a000e3
:1034ac000420a100344288000168a9002168a8000a
:1034bc004f0478000080fa00000006000000fa00bb
:1034cc0008d4bf000080fa00000006000000fa00db
:1034dc000874ef000080fa00000006000000fa00fb
:1034ec00000021002008b6000000e9004f00de00bb
:1034fc000080fa00000006003600f800809fbe0035
:10350c00829fbe00849fbe00869fbe00889fbe0027
:10351c008a1f78003200f8000020200090018800fb
:10352c00000000000000fa0099402100fa3f200042
:10353c001400370030118000004478006f00070041
:10354c0025a0800034a080008502e900848f520001
:10355c0005003a0014c0b3000002fd0008f4b700e7
:10356c000002fd000700370034a080008482440074
:10357c00884a78000402e80034a0880064402100e6
:10358c00140a65002202ab00eaff3a000168a900a8
:10359c000080fa003200f9004f0578004f04be009d
:1035ac004f03be004f02be004f01be004f00be00d5
:1035bc003600f90000400600801f7800849fbe0092
:1035cc00869fbe003200f800002020009001880089
:1035dc00000000000000fa002188a9000188a90061
:1035ec0004202000151180000502620018003a002a
:1035fc000580800014808000848f520006003a0001
:10360c00140037000580800014808000848f5200e5
:10361c0004003a000f00370040002100f73f200063
:10362c000620200004808000840240009502fb00ec
:10363c00251188000402e8000480880004002100a1
:10364c00148a63001511800005026300edff32003f
:10365c002188a8000080fa003200f9004f03be0058
:10366c004f02be004f007800004006000000fa0038
:10367c003202ab000100320003c8a8003222ab00ba
:10368c00040032003222a90014c0b30004007800f8
:10369c00b6fab700a0d5800094d580000400500085
:1036ac000080fb000080fa00000006000000fa0019
:1036bc0094d5800075ab21008482420015407800bf
:1036cc000402e80094d58800f40f200025ab2100fb
:1036dc00950a62000080fa00000006000000fa0063
:1036ec0080d1800074d18000040050000080ea007a
:1036fc00f007b2000080fa00000006000000fa009b
:10370c0084d1800025a3210084824200804a780065
:10371c000402e80084d18800f407200005a32100ee
:10372c00950a620004002800154180000502620021
:10373c0002003a0003e8a80023e8a8000080fa0081
:10374c00000006000000fa00889fbe008a1f780067
:10375c000005780081047800e0ff07000002780083
:10376c0010002000890f52000d0039000000eb0002
:10377c00808f54000a0032000002eb000404780031
:10378c000402450014407800dcff07000804e80040
:10379c0008027800888f5400f9ff3e000000eb000f
:1037ac004f0578004f04be000080fa0000000600b0
:1037bc000000fa00881f7800000478001840780098
:1037cc00e04f500004003200ccff07005840780056
:1037dc00e04f5000fcff3a004f0478000080fa00e4
:1037ec00000006000000fa00b41af800b21af90042
:1037fc00b67aef000080fa00000006000000fa0024
:10380c002e1af800301af9000080fa0000000600a9
:10381c000000fa000002eb0084118800941188006b
:10382c0003c8a90003e8a90060c7a800edff0700c2
:10383c00f2ff07000080fa00000006000000fa000a
:10384c00881f780000047800f1ff070060c7a9000a
:10385c0048429000e04f5200040032008411800076
:10386c000480a1000490a00084118800284a9000d4
:10387c00e04f5200020032003082a80033c2a80090
:10388c0068429000630262000402420095ff2f0020
:10389c008611800086826200050272008411880005
:1038ac00084a900061026200e5ff2f00861180003b
:1038bc008682620005027200841188003062a800c2
:1038cc0033e2a800741c2000c411880031e2a80067
:1038dc003342a800744280000480a1000490a00030
:1038ec0004a0a100744288007442800004c0a100ae
:1038fc0004d0a00004e0a1007442880003c8a90011
:10390c0023c8a8004f0478000080fa0000000600cd
:10391c000000fa00b6dabf000080fa0000000600d2
:10392c000000fa00b67aef000080fa0000000600f2
:10393c000000fa00000028002208b60000f0a700e2
:10394c000000ea000000e9004f00de000080fa00f1
:10395c00000006003600f800809fbe00829fbe006b
:10396c00849fbe00869fbe00889fbe008a1f780081
:10397c003200f800002020009001880000000000b8
:10398c000000fa0079ab2100fa0f20001400370078
:10399c00b01180000044780034fe070095d58000fb
:1039ac00a4d580008502e900848f520005003a00fe
:1039bc0014c0b3000002fd00b6fab7000002fd000f
:1039cc0007003700a4d5800084824400884a780020
:1039dc000402e800a4d5880044ab2100140a650059
:1039ec003202ab00eaff3a0003c8a9000080fa00db
:1039fc003200f9004f0578004f04be004f03be00a3
:103a0c004f02be004f01be004f00be003600f90051
:103a1c0000400600801f7800849fbe00869fbe0079
:103a2c003200f80000202000900188000000000007
:103a3c000000fa0023e8a90003e8a90004202000f4
:103a4c00951180000502620018003a0075d18000c3
:103a5c0084d18000848f520006003a001400370095
:103a6c0075d1800084d18000848f520004003a000c
:103a7c000f00370020a32100f707200006202000ac
:103a8c0074d18000840240009502fb00251188004f
:103a9c000402e80074d18800e4a22100148a6300b7
:103aac009511800005026300edff320023e8a800a9
:103abc000080fa003200f9004f03be004f02be0036
:103acc004f007800004006000000fa000002eb00f6
:103adc0034108800441088002228a9000228a9006c
:103aec0060e7a8000080fa00000006000000fa0061
:103afc00889fbe000004be00f3ff070060e7a9002a
:103b0c000800be003bf407000001be00003b28008b
:103b1c0051c82400b4f307000200200003f823006e
:103b2c00d1f20700a299290013112400cef207004c
:103b3c00f1f30700201088000722a8000702a80054
:103b4c0007e2a800f4fc2f00454280000502620049
:103b5c000460a000444288004f04be000080fa00bc
:103b6c00000006000000fa000602a8000602ab00e6
:103b7c00feff3a000080fa00000006000000fa0088
:103b8c000622a8000622ab00feff3a000080fa00d5
:103b9c00000006000000fa000642a8000642ab0036
:103bac00feff3a000080fa00000006000000fa0058
:103bbc000000fb0010108800050024004610800057
:103bcc0006826200fdff3a000080fa000000060049
:103bdc000000fa00401080004f00de000080fa0068
:103bec00000006000000fa000662a8000662ab00a6
:103bfc00feff3a00001080000080fa000000060072
:103c0c000000fa0006a2a9000682a8000682ab00fa
:103c1c00feff3a000080fa00000006000000fa00e7
:103c2c0006a2a8000682a8000682ab00feff3a009e
:103c3c000080fa00000006000000fa002208d500ff
:103c4c00610060000080fa00000006000000fa002d
:103c5c00881f780000047800f7ff07000042780006
:103c6c0010002000e04f520005003a00a8de88004a
:103c7c000000eb0020049a000228a8002228a800cb
:103c8c004f0478000080fa00000006003600f800af
:103c9c00809fbe00829fbe00849fbe00869fbe0098
:103cac003200f80000202000900188000000000085
:103cbc000000fa000228a900a4de8000a4029200f1
:103ccc000503e80026029a0005034200164378001b
:103cdc000603fb00cfb3de00e60f5300e08f5b0062
:103cec0027003e00060601000600370007003700db
:103cfc0008003700090037000d0037000e003700b0
:103d0c00160037000602a800240037000622a8007f
:103d1c00220037000642a8002000370005024200ae
:103d2c00144291000402fb00141088001b003700a1
:103d3c000662a800190037001508b0008582420001
:103d4c00050242001402780005108000054a780034
:103d5c0006a2a9000682a800100037001508b000c2
:103d6c008582420005024200140278000510800092
:103d7c00054a780006a2a8000682a80007003700b2
:103d8c002228a900a4de800094029200e08f520049
:103d9c000200320014029200040001000080fa00bc
:103dac003200f9004f03be004f02be004f01be00af
:103dbc004f00be003600f900004006000000fa007b
:103dcc0074c0b300044878000002eb0024009a0091
:103ddc0014009a000080fa00000006000000fa00af
:103dec002002920015002000f6072000860f5200da
:103dfc0008003c0084024000804aeb000402e8000a
:103e0c0024009a000402400075c0b300054a7800f3
:103e1c008002eb00050078000080fa00000006002c
:103e2c000000fa002002920015002000f607200086
:103e3c00860f520009003c008402400016c0b300fb
:103e4c00864a78000402e80024009a00040240002c
:103e5c0075c0b300054a78008002eb0005007800bd
:103e6c000080fa00000006000000fa002002920018
:103e7c0015002000f6072000860f520009003c00b8
:103e8c008402400026c0b300864a78000402e80091
:103e9c0024009a000402400075c0b300054a780063
:103eac008002eb00050078000080fa00000006009c
:103ebc000000fa002002920015002000f6072000f6
:103ecc00860f52000a003c00840240009142990087
:103edc0036c0b300864a78000402e80024009a0039
:103eec000402400075c0b300054a78008002eb0064
:103efc00050078000080fa00000006000000fa00bf
:103f0c002002920015002000f6072000860f5200b8
:103f1c0009003c008402400046c0b300864a780089
:103f2c000402e80024009a000402400075c0b300ab
:103f3c00054a78008002eb00050078000080fa004a
:103f4c00000006000000fa0020029200150020007c
:103f5c00f6072000860f52000e003c0015082000ca
:103f6c00848242008582420085024000810a7800ea
:103f7c008402400056c0b300864a78000402e80070
:103f8c0024009a000402400075c0b300054a780072
:103f9c008002eb00050078000080fa0000000600ab
:103fac000000fa002002920015002000f607200005
:103fbc00860f52000e003c0015082000848242003f
:103fcc008582420085024000810a7800840240000c
:103fdc0066c0b300864a78000402e80024009a0008
:103fec000402400075c0b300054a78008002eb0063
:103ffc00050078000080fa00000006000000fa00be
:10400c0061c7a90061e7a9001e61a8001fe1a80013
:10401c00744280000400a0000410a1000420a00041
:10402c00744288000388a9002388a8000080fa0045
:10403c00000006000000fa001fe1a9002388a90077
:10404c0061c7a80061e7a8000080fa000000060024
:10405c000000fa00a408800004087800b40880006e
:10406c00140098000080fa00000006000000fa001e
:10407c00889fbe008a9fbe006033b80084bc2100bc
:10408c003404be002405be00a50880000508780095
:10409c00b50880001500980026009800370098009d
:1040ac00b40f1400a48f1c00f4ff3a003002be00c1
:1040bc002003be000404440085844c0006054d001a
:1040cc0087854d000898be000a90be004f05be00c3
:1040dc004f04be000080fa00000006001000fa0039
:1040ec00889fbe008a9fbe000004be000e007800b0
:1040fc00deff07003e00be002e01be004007980008
:10410c005107980062079800730798000617210062
:10411c0086cbb90008034300041721000442b80001
:10412c00850243000404be000005eb008a057800fc
:10413c000e007800cdff07003e02be002e03be002d
:10414c004e009000de0090006e019000fe01900089
:10415c000002520081825a0002035b0083835b00e1
:10416c000820e10009a8e1000ab0e1000bb8e10069
:10417c00efff39004f05be004f04be000080fa006f
:10418c0000000600809fbe00829fbe00841f780046
:10419c00889fbe008a9fbe003200f80000202000dd
:1041ac0090018800000000000000fa0084bc21008f
:1041bc003404be002405be00f0ff2f00f1ff2f00d9
:1041cc006011b80008004000898048000a014900cd
:1041dc008b814900009abe000292be000388a900a0
:1041ec000080fa003200f9004f05be004f04be00fb
:1041fc004f0278004f01be004f00be000040060089
:020000040000fa
:10420c00d41b000002000000800000000010000021
:10421c000a08000080000000d01b00000400000011
:10422c00800000000a18000024020000800000003a
:10423c00b81b00001000000082000000000080008d
:10424c003f00000000000000000000000000000023
:10425c0000000000c81b00000800000080000000e7
:10426c002e1a00008a01000080000000d61b0000fe
:10427c000200000080000000d81b0000ca000000f3
:10428c0082000000303132003334350036373800cc
:10429c00394142004344450046003000313233007e
:1042ac003435360037383900616263006465660066
:1042bc0000286e00756c6c002900000001000000e5
:1042cc000000000000000a000000000000000000d8
:1042dc00006400000000000000000000e803000083
:1042ec00000000000000100027000000000000008b
:1042fc0000a08600010000000000000040420f00fa
:10430c0000000000000080009698000000000000f3
:10431c000000e100f50500000000000000ca9a0052
:10432c003b00000000000000e40b54000200000001
:10433c000000e80076481700000000000010a500ff
:10434c00d4e8000000000000a0724e001809000024
:10435c00000040007a10f3005a0000000080c600f4
:10436c00a47e8d000300000000c16f00f2862300c4
:10437c00000000008a5d78004563010000006400c5
:10438c00a7b3b600e00d000000e889000423c700c5
:10439c008a000000a21c0000260000008200000021
:1043ac00c91c000000c91c0009000000000200002c
:1043bc00cb1c000000cb1c000e0201000000000012
:1043cc0000000000000000000602020000000000d7
:1043dc00a21c0000c81c00000600000080000000a9
:1043ec00ce1c000002000000820000000100000052
:0443fc0000000000bd
:020000040000fa
:104400000c04fa00881f78000840200008044700c8
:1044100008007800bdfa070002002000832c240069
:1044200084402000040247001400be0049f2070047
:10443000b4f10700809fbe0002002000832c2400fe
:1044400044402000040247001400be0041f207006f
:10445000acf10700809fbe0002002000832c2400e6
:104460001800be003bf20700a6f10700809fbe00c7
:1044700044372900841f78000e00780001f30700fc
:104480000e007800a9fb0700ee8757004f04780064
:104490000080fa00000006000400fa000e00780018
:1044a000eefe07001e02be0080de800091de80006e
:1044b0000000520081805a00f6cb250057012000f1
:1044c000860f5000878f58000300360084de880076
:1044d00095de8800caff07000080fa000000060091
:1044e0000000fa002038290090fb07000080fa0045
:1044f000000006000000fa00903829008bfb07003e
:104500000080fa00000006004000fa000e02780069
:104510006694260027d72600069abe007617260046
:1045200027572600069abe0005022000050a7800db
:104530000e007800caf20700000247001539290072
:104540001b000900355a78000e007800c4f20700fd
:1045500000004700d4c0b30004587800a4c0b300e2
:10456000045878000048eb000e0078006ffb07004d
:104570000080fa00000006000000fa004404200059
:10458000343a8800f4f32f0045742000950a620045
:1045900004fe2f00263a8000060262000400a000fc
:1045a000243a880004022000173a800007026200c3
:1045b00006003a000003eb00050220007670880038
:1045c000173a800007826200fcff32000002eb0015
:1045d000f470880074718800f40f2800056a2000c8
:1045e000950a620004f82f002636800086026200d9
:1045f000c502b30025368800f50f2c004734800033
:10460000878262000580a00045348800353680002e
:10461000050262008401b3003436880004fc2f00d8
:1046200016348000060262003400b300143488009f
:10463000008ea900012ea900048ea8000080fa00b7
:10464000000006000c00fa00889fbe008a1f780058
:10465000c9ff07006cfe0700cff9070004202c00fb
:1046600015002000048fbe000042eb004447980074
:104670008002eb003507980045079800244f98000a
:104680000e0078004cfb07000e0078006efc07005f
:1046900098ff07009cff070008ec2000692120001c
:1046a000fadf2f000800be006000070024708000c1
:1046b0004922de000482ea00610262004922dd0034
:1046c0002670800086026500050272002470880052
:1046d000f4ff37000000fa00889fbe008a9fbe00ea
:1046e000a8fb2f00f9ff2f004a0320000b00200039
:1046f00047003700ccfa07000000fb00cf80de0047
:104700000000440081804c008a0f50008b8f5800bd
:104710003f003e0000060100340037003c00370037
:104720003b0037003a0037003900370038003700c7
:1047300037003700360037003500370034003700c7
:1047400033003700320037002d00370030003700cb
:104750002f0037002e0037002d0037002c003700c7
:104760002b0037002a0037002700370028003700c9
:1047700027003700260037002500370024003700c7
:1047800023003700220037002100370020003700c7
:104790001f0037001e003700140037001c003700d0
:1047a0001b0037001a0037001900370018003700c7
:1047b00017003700160037001500370014003700c7
:1047c00013003700120037000d00370010003700cb
:1047d0000f0037000e0037000d0037000c003700c7
:1047e0000b0037000a0037000700370046ff0700bc
:1047f000007d2000010020003bfe07000400370080
:104800000000fe00020037004efa070034ff0700e8
:1048100075fa0700e00f5000b6ff3a004f05be00e2
:0c4820004f04be000080fa0000000600fb
:020000040000fa
:10482c00f03fb1000180b10006003500ee03090035
:10483c0000000000403fb1000180b100fbff3d00d3
:10484c001000b000203fb0000200350000800900cd
:08485c0000000000000006004e
:020000040000fa
:02000004000af0
:04afe000dfff00008f
:020000040000fa
:02000004000af0
:04afe8007fff0000e7
:020000040000fa
:02000004000af0
:04afec003eff000024
:020000040000fa
:02000004000af0
:04aff000fbff000063
:00000001FF
